:020000040000FA
:100000006802001069010000710100007301000026
:100010007501000077010000790100000000000078
:100020000000000000000000000000007B01000054
:100030007D010000000000007F0100008101000040
:1000400083010000830100008301000083010000A0
:100050008301000083010000830100008301000090
:100060008301000083010000830100008301000080
:100070008301000083010000830100008301000070
:10008000830100004D020000830100008301000095
:100090008301000083010000830100008301000050
:1000A0008301000083010000830100008301000040
:1000B0008301000083010000830100008301000030
:1000C00083010000830100008301000000F002F8BA
:1000D00000F03AF80AA090E8000C82448344AAF1A8
:1000E0000107DA4501D100F02FF8AFF2090EBAE8A6
:1000F0000F0013F0010F18BFFB1A43F0010318475C
:10010000D8010000F8010000103A24BF78C878C177
:10011000FAD8520724BF30C830C144BF04680C600D
:10012000704700000023002400250026103A28BF55
:1001300078C1FBD8520728BF30C148BF0B60704759
:100140001FB51FBD10B510BD00F02FF81146FFF709
:10015000F7FF00F075F900F04DF803B4FFF7F2FF78
:1001600003BC00F055F800000948804709480047E3
:10017000FEE7FEE7FEE7FEE7FEE7FEE7FEE7FEE757
:10018000FEE7FEE704480549034A054B70470000B7
:1001900001030000CD00000068000010680200109C
:1001A00068000010704770477047754600F02CF8E3
:1001B000AE4605006946534620F00700854618B054
:1001C00020B5FFF7DFFFBDE820404FF000064FF0FD
:1001D00000074FF000084FF0000B21F00701AC467C
:1001E000ACE8C009ACE8C009ACE8C009ACE8C0099B
:1001F0008D46704710B50446AFF300802046BDE839
:100200001040FFF7AABF000000487047040000102C
:1002100001491820ABBEFEE726000200704700002F
:100220000448007A40F00100024908720120087079
:1002300070470000004002400348007A40F002008E
:1002400001490872704700000040024004480078ED
:1002500040F001000249087001200249086070471F
:10026000004002400000001000B503464FF0FF3090
:100270000749C861C863180488614FF480308863F7
:1002800000F01EF84FF480300149C86300BD000043
:1002900000C0092000B503464FF0FF300749C86190
:1002A000C863180488614FF4A020C863886300F015
:1002B00007F84FF480300149C86300BD00C0092031
:1002C000002005E0002100E0491C6429FCDB401C03
:1002D000B0F57A7FF6DB70471006000000000010D2
:1002E00004000000080100001406000004000010D3
:1002F000640200002401000000000000FFFFFFFF77
:1003000020204B4908604B48D0F8A00100F02000A5
:1003100030B100BF4648006800F040000028F9D026
:10032000032043499C39086000204249C1F8A801D4
:100330003F490C31086001203D49943908603E482E
:100340003C4984310860AA203A498C310860552024
:1003500008600120374980310860AA2035498C3176
:10036000086055203349C1F88C0000BF31488830FF
:10037000006800F080600028F8D003202D4980310B
:100380000860AA202B49C1F88C00552029498C31DE
:10039000086000BF27488830006800F04070B0F166
:1003A000407FF7D123202349A4310860AA202149A6
:1003B000C1F8AC0055201F49AC31086001201D492F
:1003C000A0310860AA201B49AC31086055201949AA
:1003D000C1F8AC0000BF1748A830006800F4806086
:1003E0000028F8D003201349A0310860AA20114941
:1003F000C1F8AC0055200F49AC31086000BF0D4872
:10040000A830006800F44070B0F5407FF7D10B4889
:100410000849C431086000200649C1F8C8010846EF
:10042000006820F4704040F480400860704700008D
:10043000A0C10F4000C00F4063000500DE87280404
:100440001CB5FFF75DFF4FF47F006F4908604FF464
:10045000E02008623820FFF707FF8020FFF704FF45
:100460000120FFF701FF0C20FFF7FEFEFFF7E4FE7F
:1004700010206649087200200864FFF7D1FEC1E031
:10048000624828300778614890F8248090F82090DE
:1004900090F82CA090F838B0868F8420FFF7E4FE07
:1004A000642097FBF0F100FB11700A2190FBF1F042
:1004B00000F13005E8B2FFF7EDFE0A2097FBF0F1FE
:1004C00000FB117000F13004E0B2FFF7E3FE3A20C8
:1004D000FFF7E0FE642098FBF0F100FB11800A2199
:1004E00090FBF1F000F13005E8B2FFF7D3FE0A20EF
:1004F00098FBF0F100FB118000F13004E0B2FFF74F
:10050000C9FE3A20FFF7C6FE642099FBF0F100FB1C
:1005100011900A2190FBF1F000F13005E8B2FFF7ED
:10052000B9FE0A2099FBF0F100FB119000F13004B4
:10053000E0B2FFF7AFFEC320FFF796FE64209AFB00
:10054000F0F100FB11A00A2190FBF1F000F1300561
:10055000E8B2FFF79FFE0A209AFBF0F100FB11A022
:1005600000F13004E0B2FFF795FE2F20FFF792FE76
:1005700064209BFBF0F100FB11B00A2190FBF1F02D
:1005800000F13005E8B2FFF785FE0A209BFBF0F191
:1005900000FB11B000F13004E0B2FFF77BFE2F202A
:1005A000FFF778FE4FF47A7096FBF0F03030009051
:1005B0000099C8B2FFF76EFE642096FBF0F00A21A6
:1005C00090FBF1F201FB1200303001900199C8B2AA
:1005D000FFF760FE4FF47A7096FBF0F100FB1160BC
:1005E0000A2190FBF1F000F13005E8B2FFF752FE6E
:1005F0000A2096FBF0F100FB116000F13004E0B23C
:10060000FFF748FE3CE7000000C009200040024020
:0406100000000000E6
:04000005000000CD2A
:00000001FF
