:100000000C942A000C9447000C9447000C94470071
:100010000C9447000C9447000C9447000C94470044
:100020000C9447000C9447000C9447000C94470034
:100030000C9447000C9447000C9447000C94470024
:100040000C9447000C9447000C9447000C94470014
:100050000C94470011241FBECFE5D8E0DEBFCDBF12
:1000600010E0A0E6B0E0EEE5F2E002C005900D92EF
:10007000A036B107D9F710E0A0E6B0E001C01D92AC
:10008000A036B107E1F70E9449000C942D010C94B1
:100090000000FF920F931F93CF93DF931ABA8FEF55
:1000A00087BB81BB88E388BB80E482BB88E893E19F
:1000B00029E130E0F9013197F1F70197D9F712BA48
:1000C00080E888BB80E482BB88E893E129E130E0E6
:1000D000F9013197F1F70197D9F712BA86E088BB99
:1000E00080E482BB88E893E129E130E0F9013197AF
:1000F000F1F70197D9F712BA8EE088BB80E482BB92
:1001000088E893E129E130E0F9013197F1F70197AF
:10011000D9F712BA81E088BB80E482BB88E893E11A
:1001200029E130E0F9013197F1F70197D9F712BAD7
:1001300080E687B980ECF82E40E6C9E1D0E030E2F5
:1001400001E010E4F6B886B125B1822F90E064E6B4
:1001500070E00E940601605D7F4F68BB42BB88E88B
:1001600093E1FE013197F1F70197D9F732BB822F66
:1001700090E064E670E00E9406016AE070E00E9490
:100180000601605D7F4F68BB42BB88E893E1FE01DA
:100190003197F1F70197D9F732BB822F90E06AE0EF
:1001A00070E00E940601C09688BB42BB88E893E1DC
:1001B000FE013197F1F70197D9F732BB08BB12BBAB
:1001C00088E893E1FE013197F1F70197D9F712BA68
:1001D000B9CF88BB80E482BB88E893E129E130E0B5
:1001E000F9013197F1F70197D9F712BA089588BB51
:1001F00080E682BB88E893E129E130E0F90131979C
:10020000F1F70197D9F780E282BB089597FB092E99
:1002100007260AD077FD04D00CD006D000201AF4AF
:10022000709561957F4F0895F6F7909581959F4F52
:100230000895AA1BBB1B51E107C0AA1FBB1FA6172D
:10024000B70710F0A61BB70B881F991F5A95A9F77F
:0E02500080959095BC01CD010895F894FFCFE4
:00000001FF
