:0300000002000EED
:10000B000201FD75D000853F81C2A77527007521C0
:10001B0000752000752215752315C287C2A6758938
:10002B0001758A00758CFDD2A9D2AFD28C752200D6
:10003B00752300D290D2913090502091FAE527B4DD
:10004B000016C2A73091FD1202362090FD12023627
:10005B003090FD12023601421527E527B40002C28B
:10006B00A7AA2779007B007C007D007E007F001211
:10007B0000DE8B238C223091FD1202362090FD1274
:10008B0002363090FD1202360142D2A70527E52732
:10009B00B463177527623090FD1202362091FD1262
:1000AB0002363091FD1202360142AA2779007B00FD
:1000BB007C007D007E007F001200DE8B238C2230C3
:1000CB0090FD1202362091FD1202363091FD120284
:1000DB0036014275F00AEA84ABF075F00A84ACF095
:1000EB00FDB90002802C74062B75F00A84ABF0244A
:1000FB00052C75F00A84ACF024022D75F00A84AD42
:10010B00F0BE000280012EFED9DC75F00AEE84AE43
:10011B00F0FF22AA21BA000FC282C283C284C28618
:10012B00C285C281D28022BA010FC283C284D2821D
:10013B00D286D285D281D28022BA020FC282C283EA
:10014B00C286C285C280D284D28122BA030FC282F8
:10015B00C283C284C286C280D285D28122BA040FE6
:10016B00C283C284C281C280D282D286D28522BA95
:10017B00050FC282C284C286C281C280D283D2855D
:10018B0022BA060FC282C284C286C285C281C280D5
:10019B00D28322BA070FC282C283C284D286D2858F
:1001AB00D281D28022BA080FC282C283C284C28695
:1001BB00C285C281C28022BA090FC282C283C284A5
:1001CB00C286C281C280D28522BA150FD282D28357
:1001DB00D284D286D285D281C28022BA160FD28225
:1001EB00D283D284D286D285D281D280227521004D
:1001FB00211EC0D075D008C0E00520AC20BC010B7F
:10020B00852221D287C2A6311E412BBC020B85232E
:10021B0021C287D2A6311E412B752001AC2041088B
:10022B00758AFF758CF0D0E0D0D032794F7AFF0011
:05023B00DAFDD9F922F3
:00000001FF
