:100000000C942A000C9447000C9447000C94470071
:100010000C9447000C9447000C9447000C94470044
:100020000C9447000C9447000C9447000C94470034
:100030000C9447000C9447000C9447000C94470024
:100040000C9447000C9447000C9447000C94470014
:100050000C94470011241FBECFE5D8E0DEBFCDBF12
:1000600010E0A0E6B0E0EAE1F1E002C005900D92F8
:10007000A636B107D9F710E0A6E6B0E001C01D92A0
:10008000A636B107E1F70E9449000C948B000C944E
:100090000000DF93CF9300D000D00F92CDB7DEB732
:1000A000DE011196E0E6F0E085E001900D928150CE
:1000B000E1F782E081BB1BB888E18AB986E080BDA8
:1000C00083E389B910BCDE01119629E130E00BC051
:1000D0008CB95E9BFECF88E893E1F9013197F1F787
:1000E0000197D9F711968C91882391F70F900F9073
:1000F0000F900F900F90CF91DF9108958CB95E9B78
:10010000FECF88E893E129E130E0F9013197F1F77A
:0A0110000197D9F70895F894FFCF86
:06011A00534D45430000B7
:00000001FF
