:10000000830100308A00042883010A128A112A2FF2
:1000100083120313B300B41B1628341B1E283408A4
:100020008A003308B30A0319B40A82008313341810
:1000300083173308B30A8400000808005734723469
:100040006F346E3467340034413463346334653460
:100050007334733420344734723461346E347434FE
:0600600065346434003435
:100BD600831203132C088800071087140A128A113F
:100BE6002E260A128A118710031383120800831215
:0A0BF6000313880007148714AE00F3
:100C00000A128A112E260A128A11871003138312E0
:100C100008001C2E831203132D08B4002C080A129E
:100C20008A1108200A128A110A128A11FA250A1258
:100C30008A11AC0A0319AD0A831203132D08B400FC
:100C40002C080A128A1108200A128A110038031D82
:100C50002A2E2B2E0A2E031383120800831203134D
:100C6000AF01B0013008803AF00081307002F430FA
:100C700003192F02031C3D2E3E2E3F2E722E83128F
:100C80000313B101B2013208803AF00081307002E2
:100C9000F43003193102031C4E2E4F2E502E612EBC
:100CA00083120313B10A0319B20A3208803AF00022
:100CB00081307002F43003193102031C602E612E62
:100CC000502E83120313AF0A0319B00A3008803A7A
:100CD000F00081307002F43003192F02031C712ED2
:100CE000722E3F2E031383120800262F7F308312AB
:100CF0000313860006080F39AC00AD01882E313091
:100D0000272F3230272F3330272F3430272FA22E92
:100D1000831203132D08F3002C08F2009D2E720895
:100D2000073A03197F2E0C3A0319812E063A03194C
:100D3000832E033A0319852EA22E7308003A031955
:100D40008F2EA22EBF3083120313860006080F39A0
:100D5000AC00AD01B42E3530272F3630272F373079
:100D6000272F3830272FCE2E831203132D08F300A0
:100D70002C08F200C92E7208073A0319AB2E0C3A60
:100D80000319AD2E063A0319AF2E033A0319B12EFB
:100D9000CE2E7308003A0319BB2ECE2EDF308312FD
:100DA0000313860006080F39AC00AD01E02E393080
:100DB000272F3030272F2A30272F2330272FFA2EA6
:100DC000831203132D08F3002C08F200F52E72088D
:100DD000073A0319D72E0C3A0319D92E063A0319EC
:100DE000DB2E033A0319DD2EFA2E7308003A03199D
:100DF000E72EFA2EEF3083120313860006080F3910
:100E0000AC00AD010C2F4130272F4230272F43304B
:100E1000272F4430272F262F831203132D08F3008A
:100E20002C08F200212F7208073A0319032F0C3AFD
:100E30000319052F063A0319072F033A0319092F3F
:100E4000262F7308003A0319132F262F762E03132B
:100E500083120800313083120313A0003230A10046
:100E60003330A2003430A300AA01AB0183168701FE
:100E700088010F30860038308312AC00AD010A12B1
:100E80008A11EB250A128A118030AC00AD010A12DA
:100E90008A11EB250A128A11AC01AC0AAD010A12C3
:100EA0008A11EB250A128A110630AC00AD010A1234
:100EB0008A11EB250A128A110E30AC00AD010A121C
:100EC0008A11EB250A128A11A801A9012908803A82
:100ED000F00080307002043003192802031C712FC7
:100EE000722F732F982F0A128A1175260A128A11EF
:100EF000F0002808243E840083137008800028082E
:100F0000243E8400831300080A128A11FA250A126B
:100F10008A11A80A0319A90A2908803AF00080302A
:100F20007002043003192802031C972F982F732F87
:100F300083120313A801A9012908803AF000803028
:100F40007002043003192802031CA72FA82FA92F11
:100F5000CF2F831203132808243E84008313000834
:100F6000F0002808203E8400831300087006031D4B
:100F7000BA2FBB2FBE2FAA0A0319AB0A8312031381
:100F8000A80A0319A90A2908803AF00080307002E3
:100F9000043003192802031CCE2FCF2FA92F831250
:100FA00003132A08043A2B04031DD72FD82FEA2F46
:100FB000AC01AC0AAD010A128A11EB250A128A11A2
:100FC0002430AC000030AD000A128A1109260A1242
:100FD0008A11FD2F83120313AC01AC0AAD010A1272
:100FE0008A11EB250A128A111E30AC000030AD00C8
:100FF0000A128A1109260A128A110A128A11042871
:00000001FF
