:100000000C942A000C9447000C9447000C94470071
:100010000C9447000C9447000C9447000C94470044
:100020000C9447000C9447000C9447000C94470034
:100030000C9447000C9447000C9447000C94470024
:100040000C9447000C9447000C9447000C94470014
:100050000C94470011241FBECFE5D8E0DEBFCDBF12
:1000600010E0A0E6B0E0ECE7F2E002C005900D92EF
:10007000A036B107D9F710E0A0E6B0E001C01D92AC
:10008000A036B107E1F70E94BF000C943C010C942C
:1000900000005FE74FEB3FED2FEE52BB80B390E0E7
:1000A0008F7090708B30910561F08C3091051CF44D
:1000B000079779F408C08D30910539F00E9749F40F
:1000C00006C082E3089581E3089583E3089584E3FD
:1000D000089542BB80B390E08F7090708B30910593
:1000E00061F08C3091051CF4079779F408C08D30CD
:1000F000910539F00E9749F406C086E3089585E32B
:10010000089587E3089588E3089532BB80B390E0B3
:100110008F7090708B30910561F08C3091051CF4DC
:10012000079779F408C08D30910539F00E9749F49E
:1001300006C08AE2089589E3089583E2089580E382
:10014000089522BB80B390E08F7090708B30910542
:1001500071F08C30910524F4079709F09ECF09C007
:100160008D30910541F00E9709F097CF06C081E4DC
:10017000089588E4089582E508958FE408950F9323
:100180001F93CF93DF9380EF81BB8FEF84BB87BB3F
:1001900088E388BB82E085BB80E29EE429E130E011
:1001A000F9013197F1F70197D9F715BA80E888BBC3
:1001B00082E085BB80E29EE429E130E0F9013197DD
:1001C000F1F70197D9F715BA8EE088BB82E085BBBD
:1001D00080E29EE429E130E0F9013197F1F70197DF
:1001E000D9F715BA86E088BB82E085BB80E29EE441
:1001F00029E130E0F9013197F1F70197D9F715BA04
:1002000081E088BB82E085BB80E29EE429E130E0AA
:10021000F9013197F1F70197D9F715BA03E0C9E170
:10022000D0E011E00E94490088BB05BB80E29EE45B
:10023000FE013197F1F70197D9F715BBF3CF88BBD2
:1002400082E085BB80E29EE429E130E0F90131974C
:10025000F1F70197D9F715BA089588BB83E085BBFC
:1002600080E29EE429E130E0F9013197F1F701974E
:0C027000D9F781E085BB0895F894FFCF1A
:00000001FF
