:020000040000FA
:100000006802001069010000710100007301000026
:100010007501000077010000790100000000000078
:100020000000000000000000000000007B01000054
:100030007D010000000000007F0100008101000040
:1000400083010000830100008301000083010000A0
:100050008301000083010000830100008301000090
:100060008301000083010000830100008301000080
:100070008301000083010000830100008301000070
:100080008301000083010000830100008301000060
:100090008301000083010000830100008301000050
:1000A0008301000083010000830100008301000040
:1000B0008301000083010000830100008301000030
:1000C00083010000830100008301000000F002F8BA
:1000D00000F03AF80AA090E8000C82448344AAF1A8
:1000E0000107DA4501D100F02FF8AFF2090EBAE8A6
:1000F0000F0013F0010F18BFFB1A43F0010318475C
:10010000F406000014070000103A24BF78C878C134
:10011000FAD8520724BF30C830C144BF04680C600D
:10012000704700000023002400250026103A28BF55
:1001300078C1FBD8520728BF30C148BF0B60704759
:100140001FB51FBD10B510BD00F02FF81146FFF709
:10015000F7FF00F0D5FA00F04DF803B4FFF7F2FF17
:1001600003BC00F055F800000948804709480047E3
:10017000FEE7FEE7FEE7FEE7FEE7FEE7FEE7FEE757
:10018000FEE7FEE704480549034A054B70470000B7
:1001900065050000CD000000680000106802001036
:1001A00068000010704770477047754600F02CF8E3
:1001B000AE4605006946534620F00700854618B054
:1001C00020B5FFF7DFFFBDE820404FF000064FF0FD
:1001D00000074FF000084FF0000B21F00701AC467C
:1001E000ACE8C009ACE8C009ACE8C009ACE8C0099B
:1001F0008D46704710B50446AFF300802046BDE839
:100200001040FFF7AABF000000487047040000102C
:1002100001491820ABBEFEE726000200704730B54A
:100220000446002504E04FF47A7000F004F86D1CD9
:10023000A542F8D330BD0021002200BF05E0002216
:1002400000E0521C172AFCD3491C8142F7D37047A7
:1002500070B506460C4615462946204600F0D0F8F3
:100260000148068070BD0000020000102DE9F04733
:1002700004464FF00009A0251948008884422BDA73
:10028000E6B217480088B0F5006F02D94FEA14288B
:1002900003E0270A45EA4700C5B200F0FFF8284608
:1002A00000F048F90E480088B0F5006F02D94046CA
:1002B00000F040F9304600F03DF900F0EFF845F06D
:1002C000010000F037F9002000F0B0F8814600F09E
:1002D0000DF90A20FFF7AFFF4846BDE8F0870000A0
:1002E00002000010000000000000000000000000FC
:1002F000000000000000000000000000FFFFFFFF02
:100300002DE9F04704460D46A02716480088844290
:1003100025DAE6B213480088B0F5006F02D94FEA3B
:10032000142804E04FEA142947EA4900C7B200F054
:10033000B5F8384600F0FEF80A480088B0F5006FBE
:1003400002D9404600F0F6F8304600F0F3F82846AF
:1003500000F0F0F800F0CAF80A20FFF760FFBDE8EF
:10036000F08700000200001030B50A46A02811DA1C
:10037000431100F01F00084C04EB43112AB10C6834
:10038000012585402C430C6004E00C680125854064
:10039000AC430C6030BD000000C0092030B5014600
:1003A0000020A0290EDA4A1101F01F01064C04EBCF
:1003B00042135C6901258D402C400CB1012400E002
:1003C0000024204630BD000000C0092030B50A4698
:1003D000A02811DA431100F01F00084C04EB431170
:1003E0002AB18C69012585402C438C6104E0CC69DD
:1003F000012585402C43CC6130BD000000C00920A0
:1004000070B505460C460748057007480470012181
:1004100004480078FFF7A8FF012103480078FFF7A0
:10042000A3FF70BD000000100100001070B505466C
:100430000024002117480078FFF796FF002618E0F7
:100440000120FFF7F8FE012113480078FFF7BEFFF7
:100450000120FFF7F0FE6006040E0E480078FFF75B
:100460009DFF044300210C480078FFF7AFFF701C8C
:10047000C6B2082EE4DB012106480078FFF774FFBE
:10048000012D02D100F080F901E000F0A1F9204631
:1004900070BD0000000000100100001010B5002128
:1004A00010480078FFF792FF01210F480078FFF70E
:1004B0008DFF0120FFF7BFFE01210A480078FFF7FA
:1004C00085FF0120FFF7B7FE002107480078FFF7FE
:1004D0007DFF0120FFF7AFFE002102480078FFF703
:1004E00075FF10BD010000100000001010B50021C4
:1004F0000E480078FFF76AFF0120FFF79CFE0021FD
:100500000B480078FFF762FF0120FFF794FE0121FE
:1005100006480078FFF75AFF0120FFF78CFE012103
:1005200003480078FFF752FF10BD000001000010E3
:100530000000001070B5044600250BE0C4F3C011A4
:1005400007480078FFF742FF00F02EF96006040E1E
:10055000681CC5B2082DF1DB00F026F970BD000063
:100560000000001020204549086000BF4348006893
:1005700000F040000028F9D0032040499C39086071
:1005800001203F49C1F80C013E483D4984310860D3
:10059000AA203B498C310860552008600120384969
:1005A00080310860AA2036498C31086055203449D2
:1005B000C1F88C0000BF32488830006800F08060CD
:1005C0000028F8D003202E4980310860AA202C4949
:1005D000C1F88C0055202A498C31086000BF28489A
:1005E0008830006800F040700028F8D023202449AB
:1005F000A4310860AA202249C1F8AC005520204946
:10060000AC31086001201E49A0310860AA201C49B5
:10061000AC31086055201A49C1F8AC0000BF184839
:10062000A830006800F480600028F8D00320144946
:10063000A0310860AA201249C1F8AC005520104929
:10064000AC31086000BF0E48A830006800F440706C
:100650000028F8D000200949083108600849C1F88D
:10066000AC0109480649C43108600020034928311B
:10067000086043F23A00024908607047A0C10F4089
:1006800000C00F4063000500DE87280400B5034664
:100690004FF0FF300749C861C863180488614FF400
:1006A0008030886300F01EF84FF480300149C86341
:1006B00000BD000000C0092000B503464FF0FF3028
:1006C0000749C861C863180488614FF4A020C86353
:1006D000886300F007F84FF480300149C86300BD1B
:1006E00000C00920002006E0002100E0491CB1F50F
:1006F0007A7FFBDB401CB0F57A7FF5DB70470000AA
:1007000010B5FFF72FFF4FF47F001E4908604FF42C
:10071000E02008623820FFF7B9FF8020FFF7B6FF1E
:100720000120FFF7B3FF0620FFF7B0FF0E20FFF711
:10073000ADFF1C221B214FF40060FFF789FD412112
:10074000A020FFF7DDFDA020FFF790FD0446204626
:10075000FFF7B2FF4221A120FFF7D2FDA120FFF752
:1007600085FD04462046FFF7A7FF4321A220FFF79F
:10077000C7FDA220FFF77AFD04462046FFF79CFF45
:10078000002010BD00C0092010B5002105480078E8
:10079000FFF71CFE00F008F8012102480078FFF77F
:1007A00015FE10BD0000001010B50120FFF743FD3D
:1007B000012106480078FFF709FE0120FFF73BFD05
:1007C000002102480078FFF701FE10BD0100001073
:1007D00010B5012105480078FFF7F8FDFFF7E4FFA9
:1007E000012103480078FFF7F1FD10BD0000001063
:1007F00001000010140800000000001004000000B8
:100800000801000018080000040000106402000045
:080810002401000000000000BB
:04000005000000CD2A
:00000001FF
