:10000000830100308A00042883010A128A11B22F6A
:100E5C002F2F831203138C1E342F352F2F2F831219
:100E6C0003131A08392F0313831208008312031378
:100E7C0021088800061086140A128A116B270A12A0
:100E8C008A1186100313831208008312031388003F
:100E9C0006148614A1000A128A116B270A128A11F1
:100EAC008610031383120800831203139900A10008
:100EBC005F2F831203130C1E642F652F5F2F831279
:100ECC0003130C1203138312080083120313A301E0
:100EDC00A4012408803AF00080307002FF3003191E
:100EEC002302031C7A2F7B2F7C2FAF2F831203132B
:100EFC00A501A6012608803AF00080307002FA3075
:100F0C0003192502031C8B2F8C2F8D2F9E2F8312E0
:100F1C000313A50A0319A60A2608803AF0008030AC
:100F2C007002FA3003192502031C9D2F9E2F8D2F62
:100F3C0083120313A30A0319A40A2408803AF000AD
:100F4C0080307002FF3003192302031CAE2FAF2F29
:100F5C007C2F031383120800831603138601880168
:100F6C0080308700243098009030831298008130B4
:100F7C008316990038308312A100A2010A128A113B
:100F8C003C270A128A11A101A10AA2010A128A1194
:100F9C003C270A128A110630A100A2010A128A11FA
:100FAC003C270A128A110E30A100A2010A128A11E2
:100FBC003C270A128A118030A100A2010A128A1160
:100FCC003C270A128A11FC2F0A128A112E270A12A8
:100FDC008A11A00020080A128A114B270A128A11C2
:100FEC0020080A128A115A270A128A11EA2F0A12A9
:040FFC008A1104282A
:00000001FF
