:020000040000FA
:100000006802001069010000710100007301000026
:100010007501000077010000790100000000000078
:100020000000000000000000000000007B01000054
:100030007D010000000000007F0100008101000040
:1000400083010000830100008301000083010000A0
:100050008301000083010000830100008301000090
:100060008301000083010000830100008301000080
:100070008301000083010000830100008301000070
:100080008301000083010000830100008301000060
:100090008301000083010000830100008301000050
:1000A0008301000083010000830100008301000040
:1000B0008301000083010000830100008301000030
:1000C00083010000830100008301000000F002F8BA
:1000D00000F03AF80AA090E8000C82448344AAF1A8
:1000E0000107DA4501D100F02FF8AFF2090EBAE8A6
:1000F0000F0013F0010F18BFFB1A43F0010318475C
:100100001C0500003C050000103A24BF78C878C1E7
:10011000FAD8520724BF30C830C144BF04680C600D
:10012000704700000023002400250026103A28BF55
:1001300078C1FBD8520728BF30C148BF0B60704759
:100140001FB51FBD10B510BD00F02FF81146FFF709
:10015000F7FF00F01BFA00F04DF803B4FFF7F2FFD1
:1001600003BC00F055F800000948804709480047E3
:10017000FEE7FEE7FEE7FEE7FEE7FEE7FEE7FEE757
:10018000FEE7FEE704480549034A054B70470000B7
:1001900059030000CD000000680000106802001044
:1001A00068000010704770477047754600F02CF8E3
:1001B000AE4605006946534620F00700854618B054
:1001C00020B5FFF7DFFFBDE820404FF000064FF0FD
:1001D00000074FF000084FF0000B21F00701AC467C
:1001E000ACE8C009ACE8C009ACE8C009ACE8C0099B
:1001F0008D46704710B50446AFF300802046BDE839
:100200001040FFF7AABF000000487047040000102C
:1002100001491820ABBEFEE726000200704700002F
:1002200001464A1101F01F01034800EB42135869CF
:10023000C84000F00100704700C0092030B50A46F0
:10024000431100F01F00094C04EB43112AB90C685C
:10025000002585402C430C6006E0012A04D10C687F
:10026000012585402C430C6030BD000000C00920F2
:1002700070B50C46421100F01F0053061A0E0F28ED
:1002800009DD531CDAB20346C51700EB15752D11B5
:10029000A0EB0515E8B2084B03EB820146000325ED
:1002A000B5400B68AB430B60450004FA05F50B68DD
:1002B0002B430B6070BD000000C0024030B50A4601
:1002C000431100F01F00074C04EB4311CC690125DA
:1002D00085402C43CC618C6902FA00F52C438C617B
:1002E00030BD000000C009200349C861096D41F01C
:1002F0000201014A1165704700800140FFFFFFFFC6
:1003000070B504460D463F2C04DA02212046FFF763
:10031000AFFF05E03F2C03DD01212046FFF7A8FFDA
:1003200000200C49C8641720C86008468561FA207F
:10033000C8610846406940F0020048610846006D07
:1003400040F0030008654815C86402204860092091
:10035000486070BD0080014020208149086000BFD6
:100360007F48006800F040000028F9D003207C4955
:100370009C39086000207B49C1F8A80178490C31FC
:10038000086001207649943908600B207549843152
:1003900008600120091F0860AA2072498C3108609A
:1003A00055207049C1F88C0000BF6E488830006845
:1003B00000F080600028F8D003206A49803108608E
:1003C000AA206849C1F88C00552066498C31086024
:1003D00023206449A43108600120091F0860AA2075
:1003E0006049AC3108605520086000BF5D48A83006
:1003F000006800F480600028F8D003205949A0313B
:100400000860AA205749C1F8AC0055205549AC31C5
:10041000086055485349C431086000205149C1F86B
:10042000C8010846D0F88800C0F30160032860D1F5
:100430004B489438006800F0030030B1012820D008
:10044000022839D0032853D100E000BF4548883046
:100450000068C0F30E00401C41004248D0F88800FC
:10046000C0F30740401CB1FBF0F0404948433C4911
:100470009C390968C9B2491CB0FBF1F03C490860DD
:1004800036E0384888300068C0F30E00401C410058
:100490003448D0F88800C0F30740401CB1FBF0F0AE
:1004A000344948432E499C390968C9B2491CB0FBFC
:1004B000F1F02F4908601BE02A4888300068C0F33B
:1004C0000E00401C41002748D0F88800C0F30740C8
:1004D000401CB1FBF0F04FF4FA41484320499C39ED
:1004E0000968C9B2491CB0FBF1F02149086000BF9E
:1004F00030E01B489438006800F0030030B1012858
:1005000010D0022819D0032823D100E000BF1448DE
:100510009C380068C0B2401C1449B1FBF0F014498B
:10052000086016E00E489C380068C0B2401C1149B3
:10053000B1FBF0F00E4908600BE009489C380068F8
:10054000C0B2401C4FF4FA41B1FBF0F0084908601A
:1005500000BF00BF43F23A00024908607047000044
:10056000A0C10F4000C00F40DE87280400093D00F5
:1005700000000010001BB70000204FF0402108676A
:1005800046F2A710C860022048607047FFF7F4FFEA
:100590004FF4FA613220FFF7B3FE00F002F800BF1B
:1005A000FEE70024002500211020FFF747FE002170
:1005B0001120FFF743FE01211220FFF73FFE2BE041
:1005C000B4F5FA6F11DA1020FFF72AFE68B900BF00
:1005D0001020FFF725FE0028FAD085F0010005461F
:1005E000C1B21220FFF76AFE3234002C11DD112057
:1005F000FFF716FE68B900BF1120FFF711FE0028B3
:10060000FAD085F001000546C1B21220FFF756FE70
:10061000323CA0B2FFF768FED2E700003C060000C3
:100620000000001004000000080100004006000067
:1006300004000010640200002401000000093D00D5
:04000005000000CD2A
:00000001FF
