:100000000C942A000C9447000C9447000C94470071
:100010000C9447000C9447000C9447000C94470044
:100020000C9447000C9447000C9447000C94470034
:100030000C9447000C9447000C9447000C94470024
:100040000C9447000C9447000C9447000C94470014
:100050000C94470011241FBECFE5D8E0DEBFCDBF12
:1000600010E0A0E6B0E0E8EDF1E002C005900D92EE
:10007000A836B107D9F710E0A8E6B0E001C01D929C
:10008000A836B107E1F70E9449000C94EA000C94ED
:1000900000001F938FEF81BB87BB84BB88E388BBC5
:1000A00080E482BB88E893E129E130E0F9013197EF
:1000B000F1F70197D9F712BA80E888BB80E482BBD8
:1000C00088E893E129E130E0F9013197F1F70197F0
:1000D000D9F712BA8EE088BB80E482BB88E893E14E
:1000E00029E130E0F9013197F1F70197D9F712BA18
:1000F00086E088BB80E482BB88E893E129E130E0B8
:10010000F9013197F1F70197D9F712BA81E088BB6D
:1001100080E482BB88E893E129E130E0F90131977E
:10012000F1F70197D9F712BA16E071E060E429E11E
:1001300030E050E640E215BB78BB62BB88E893E153
:10014000F9013197F1F70197D9F712BAA0E6B0E0BB
:100150000BC088BB52BB88E893E1F9013197F1F7F6
:100160000197D9F742BB11968C91882321F3F1CFE7
:1001700088BB80E482BB88E893E129E130E0F901A3
:100180003197F1F70197D9F712BA089588BB80E645
:1001900082BB88E893E129E130E0F9013197F1F77A
:1001A0000197D9F780E282BB0895DC0150E629E18E
:1001B00030E040E20BC088BB52BB88E893E1F90114
:1001C0003197F1F70197D9F742BB11968C918823AB
:0801D00091F70895F894FFCFA8
:0801D800466F7277617264004A
:00000001FF
