:10000000830100308A00042883010A128A11C72F55
:100F6C00831203139900A700BB2F831203130C1ECB
:100F7C00C02FC12FBB2F831203130C120313831228
:100F8C000800533083120313A2004D30A3004530E8
:100F9C00A4004330A500A6018030831687002430BE
:100FAC009800903083129800813083169900831238
:100FBC00A001A101F02F831203132008223E84000C
:100FCC00831300080A128A11B6270A128A11A00A82
:100FDC000319A10A831203132008223E84008313F1
:100FEC008008031DFA2FFB2FE12FFC2FFC2F0A1278
:040FFC008A1104282A
:00000001FF
