S0110000544F4C4C5F424F54482E737265634C
S11300000C942A000C943F000C943F000C943F0085
S11300100C943F000C943F000C943F000C943F0060
S11300200C943F000C943F000C943F000C943F0050
S11300300C943F000C943F000C943F000C943F0040
S11300400C943F000C943F000C943F000C943F0030
S11300500C943F0011241FBECFE5D8E0DEBFCDBF16
S113006010E0A0E6B0E0EEE0F3E002C005900D92EF
S1130070AA3AB107D9F70E9448010C9485010C945F
S1130080000085BB82E088BB2FE382E49FE021501F
S113009080409040E1F700C0000018BA089585BB85
S11300A083E088BB2FE382E49FE0215080409040AE
S11300B0E1F700C0000081E088BB0895CF93DF938F
S11300C0EC018881882331F021960E944F008991A8
S11300D08111FBCFDF91CF9108959FE72FEB3FED87
S11300E04FEE92BB80B38F708B3051F020F4873089
S11300F009F448C00BC08D3029F08E3029F006C0B9
S113010082E3089583E3089584E3089522BB80B3D2
S11301108F708B3049F018F48730B1F10BC08D30FB
S113012029F08E3029F006C086E3089587E3089508
S113013088E3089532BB80B38F708B3049F018F494
S1130140873021F10BC08D3029F08E3029F006C0A4
S11301508AE2089583E2089580E3089542BB80B360
S11301608F708B3049F018F4873091F0BACF8D300E
S113017029F08E3029F0B5CF81E4089582E5089501
S11301808FE4089581E3089585E3089589E308954C
S113019088E40895CF92DF92EF92FF920F931F931A
S11301A0CF93DF93CDB7DEB728970FB6F894DEBFB1
S11301B00FBECDBF81E392E39E838D8383E394E3FB
S11301C098878F8381E090E00E94410080E690E070
S11301D00E945E002FEB37E289E0215030408040DE
S11301E0E1F700C0000081E090E00E9441008E0130
S11301F00F5F1F4F6E0195E0C90ED11C78010E945C
S11302006D00D7018D937D01BFE3EDE0F3E0B150C4
S1130210E040F040E1F700C000000E944F00EC1401
S1130220FD0469F7FE01359620E030E0D8019D9188
S11302308D018191981302C02F5F3F4F0C151D054E
S1130240A9F72430310559F481E090E00E9441007F
S113025083E790E00E945E0081E090E00AC081E0C4
S113026090E00E94410082E890E00E945E0080E0FD
S113027090E028960FB6F894DEBF0FBECDBFDF9195
S1130280CF911F910F91FF90EF90DF90CF90089541
S11302901ABA8FEF87BB84BB80EF81BB88E390E001
S11302A00E94410080E890E00E94410086E090E0D6
S11302B00E9441008EE090E00E94410081E090E0C5
S11302C00E94410080E990E00E945E002FE382E4F6
S11302D09FE0215080409040E1F700C0000081E0A1
S11302E090E00E94410088E990E00E945E00C89B73
S11302F0FECFC89B07C00E94CA000197F9F680E5AB
S111030088BBFECF80E090E00895F894FFCF14
S113030E454E544552205448452050415353574F5F
S113031E524400414343455353204752414E5445A2
S113032E44004143434553532044454E49454400FC
S113033E57454C434F4D4500505245535320544856
S10D034E4520425554544F4E000060
S9030000FC
