:100000000C942A000C9447000C9447000C94470071
:100010000C9447000C9447000C9447000C94470044
:100020000C9447000C9447000C9447000C94470034
:100030000C9447000C9447000C9447000C94470024
:100040000C9447000C9447000C9447000C94470014
:100050000C94470011241FBECFE5D8E0DEBFCDBF12
:1000600010E0A0E6B0E0EAE4F1E002C005900D92F5
:10007000A036B107D9F710E0A0E6B0E001C01D92AC
:10008000A036B107E1F70E9449000C94A3000C943C
:100090000000DF93CF93CDB7DEB72A970FB6F89461
:1000A000DEBF0FBECDBF8FEF87BB84BB82E081BBBD
:1000B0001BB888E18AB986E080BD83E389B910BCAA
:1000C0005F9BFECF8CB18A32D9F7FE01AFEFBFEF55
:1000D00006C05F9BFECF8CB18183119631968081E3
:1000E0008332B9F7CE010196A80FB91F1C92DC012B
:1000F00029E130E00BC08CB95E9BFECF88E893E12C
:10010000F9013197F1F70197D9F711968C9188236E
:1001100091F72A960FB6F894DEBF0FBECDBFCF91F0
:10012000DF9108955F9BFECF8CB108958CB95E9BE3
:10013000FECF88E893E129E130E0F9013197F1F74A
:0A0140000197D9F70895F894FFCF56
:00000001FF
