:10000000830100308A00042883010A128A11972E86
:100CF2008312031322088800071087140A128A112C
:100D0200D8260A128A11871003138312080083124D
:100D12000313880007148714A2000A128A11D82626
:100D22000A128A1187100313831208000F308316E8
:100D3200031386008701880138308312A200A301C1
:100D42000A128A1179260A128A118030A200A3019E
:100D52000A128A1179260A128A11A201A20AA30191
:100D62000A128A1179260A128A110630A200A301F8
:100D72000A128A1179260A128A110E30A200A301E0
:100D82000A128A1179260A128A11D42E0A128A119B
:100D92001F270A128A11A000A10120080A128A1133
:100DA20088260A128A11C72E0A128A11042883126F
:100DB2000313A401A5012508803AF00081307002D6
:100DC200F43003192402031CE72EE82EE92E1C2F0F
:100DD20083120313A601A7012708803AF00081308D
:100DE2007002F43003192602031CF82EF92EFA2E93
:100DF2000B2F83120313A60A0319A70A2708803AA6
:100E0200F00081307002F43003192602031C0A2F0D
:100E12000B2FFA2E83120313A40A0319A50A25081D
:100E2200803AF00081307002F43003192402031C6E
:100E32001B2F1C2FE92E031383120800FC2F7F3077
:100E420083120313860006080F39A200A301322F72
:100E52003130FD2F3230FD2F3330FD2F3430FD2F56
:100E62004C2F831203132308F3002208F200472FAA
:100E72007208073A0319292F0C3A03192B2F063A45
:100E820003192D2F033A03192F2F4C2F7308003A01
:100E92000319392F4C2FBF30831203138600060823
:100EA2000F39A200A3015E2F3530FD2F3630FD2F02
:100EB2003730FD2F3830FD2F782F8312031323088C
:100EC200F3002208F200732F7208073A0319552F14
:100ED2000C3A0319572F063A0319592F033A0319EB
:100EE2005B2F782F7308003A0319652F782FDF30B4
:100EF20083120313860006080F39A200A3018A2F6A
:100F02003930FD2F3030FD2F4130FD2F4230FD2F83
:100F1200A42F831203132308F3002208F2009F2F49
:100F22007208073A0319812F0C3A0319832F063AE4
:100F32000319852F033A0319872FA42F7308003A48
:100F42000319912FA42FDF308312031386000608A2
:100F52000F39A200A301B62F4330FD2F4430FD2FDD
:100F62004530FD2F4730FD2FD02F83120313230866
:100F7200F3002208F200CB2F7208073A0319AD2FB3
:100F82000C3A0319AF2F063A0319B12F033A03198A
:100F9200B32FD02F7308003A0319BD2FD02FEF3093
:100FA20083120313860006080F39A200A301E22F61
:100FB2004830FD2F4930FD2F2A30FD2F2330FD2FE1
:100FC200FC2F831203132308F3002208F200F72FE9
:100FD2007208073A0319D92F0C3A0319DB2F063A84
:100FE2000319DD2F033A0319DF2FFC2F7308003A90
:0E0FF2000319E92FFC2F202F03138312080090
:00000001FF
