:020000040000FA
:100000006802001069010000710100007301000026
:100010007501000077010000790100000000000078
:100020000000000000000000000000007B01000054
:100030007D010000000000007F0100008101000040
:1000400083010000830100008301000083010000A0
:100050008301000083010000830100008301000090
:100060008301000083010000830100008301000080
:100070008301000083010000830100008301000070
:100080008301000083010000830100008301000060
:100090008301000083010000830100008301000050
:1000A0008301000083010000830100008301000040
:1000B0008301000083010000830100008301000030
:1000C00083010000830100008301000000F002F8BA
:1000D00000F03AF80AA090E8000C82448344AAF1A8
:1000E0000107DA4501D100F02FF8AFF2090EBAE8A6
:1000F0000F0013F0010F18BFFB1A43F0010318475C
:100100006C0700008C070000103A24BF78C878C143
:10011000FAD8520724BF30C830C144BF04680C600D
:10012000704700000023002400250026103A28BF55
:1001300078C1FBD8520728BF30C148BF0B60704759
:100140001FB51FBD10B510BD00F02FF81146FFF709
:10015000F7FF00F099FA00F04DF803B4FFF7F2FF53
:1001600003BC00F055F800000948804709480047E3
:10017000FEE7FEE7FEE7FEE7FEE7FEE7FEE7FEE757
:10018000FEE7FEE704480549034A054B70470000B7
:1001900049050000CD000000680000106802001052
:1001A00068000010704770477047754600F02CF8E3
:1001B000AE4605006946534620F00700854618B054
:1001C00020B5FFF7DFFFBDE820404FF000064FF0FD
:1001D00000074FF000084FF0000B21F00701AC467C
:1001E000ACE8C009ACE8C009ACE8C009ACE8C0099B
:1001F0008D46704710B50446AFF300802046BDE839
:100200001040FFF7AABF000000487047040000102C
:1002100001491820ABBEFEE726000200704700002F
:1002200000BF0449097D01F001010029F9D001490D
:100230000878704700C0004000B50BE000BF0A48D6
:10024000007D00F001000028F9D007480278104630
:1002500000F024F80448007D00F001000028EDD1F2
:1002600007200149087200BD00C0004000BF0449DA
:10027000097D01F020010029F9D00149087070477B
:1002800000C0004000B5024603E01078FFF7EEFF23
:10029000521C10780028F8D100BD000000BF0449AE
:1002A000097D01F020010029F9D00149087070474B
:1002B0000000014000B5024603E01078FFF7EEFFB2
:1002C000521C10780028F8D100BD70B50446FFF725
:1002D000A7FF0546A54204D1FFF7A2FF0546284621
:1002E00070BD0020FCE700000000000000000000DE
:1002F000000000000000000000000000FFFFFFFF02
:1003000010B50446412C09D15EA0FFF7D3FF604829
:10031000806940F480305E498861B2E0612C09D187
:100320005CA0FFF7C7FF5A48C06940F480305849C5
:10033000C861A6E0422C09D159A0FFF7BBFF544881
:10034000806940F40030524988619AE0622C09D1FA
:1003500056A0FFF7AFFF4E48C06940F400304C494B
:10036000C8618EE0432C09D153A0FFF7A3FF484892
:10037000806940F480204649886182E0632C09D17D
:1003800050A0FFF797FF4248C06940F480204049E1
:10039000C86176E0442C09D14DA0FFF78BFF3C48A3
:1003A000806940F400203A4988616AE0642C09D1F0
:1003B0004AA0FFF77FFF3648C06940F40020344967
:1003C000C8615EE0452C09D147A0FFF773FF3048B4
:1003D000806940F480102E49886152E0652C09D173
:1003E00044A0FFF767FF2A48C06940F480102849FD
:1003F000C86146E0462C09D141A0FFF75BFF2448C5
:10040000806940F40010224988613AE0662C09D1E5
:100410003EA0FFF74FFF1E48C06940F400101C4982
:10042000C8612EE0472C09D13BA0FFF743FF1848D5
:10043000806940F480001649886122E0672C09D168
:1004400038A0FFF737FF1248C06940F48000104918
:10045000C86116E0482C09D135A0FFF72BFF0C48E6
:10046000806940F400000A4988610AE0682C08D1DC
:1004700032A0FFF71FFF0648C06940F4000004499E
:10048000C86110BD0A0D4C4544315F4F4E0000005D
:1004900000C009200A0D4C4544315F4F464600001C
:1004A0000A0D4C4544325F4F4E0000000A0D4C458A
:1004B00044325F4F464600000A0D4C4544335F4FBF
:1004C0004E0000000A0D4C4544335F4F4646000085
:1004D0000A0D4C4544345F4F4E0000000A0D4C4558
:1004E00044345F4F464600000A0D4C4544355F4F8B
:1004F0004E0000000A0D4C4544355F4F4646000053
:100500000A0D4C4544365F4F4E0000000A0D4C4525
:1005100044365F4F464600000A0D4C4544375F4F56
:100520004E0000000A0D4C4544375F4F4646000020
:100530000A0D4C4544385F4F4E0000000A0D4C45F3
:1005400044385F4F4646000020204B4908604B4826
:10055000D0F8A00100F0200030B100BF464800688C
:1005600000F040000028F9D0032043499C3908607E
:1005700000204249C1F8A8013F490C310860012020
:100580003D49943908603E483C4984310860AA20BE
:100590003A498C3108605520086001203749803184
:1005A0000860AA2035498C31086055203349C1F8CC
:1005B0008C0000BF31488830006800F0806000285F
:1005C000F8D003202D4980310860AA202B49C1F8BA
:1005D0008C00552029498C31086000BF274888309D
:1005E000006800F04070B0F1407FF7D1232023492C
:1005F000A4310860AA202149C1F8AC0055201F4948
:10060000AC31086001201D49A0310860AA201B49B7
:10061000AC31086055201949C1F8AC0000BF17483B
:10062000A830006800F480600028F8D00320134947
:10063000A0310860AA201149C1F8AC0055200F492B
:10064000AC31086000BF0D48A830006800F440706D
:10065000B0F5407FF7D10B480849C431086000204D
:100660000649C1F8C8010846006820F4704040F40B
:100670008040086070470000A0C10F4000C00F40DC
:1006800063000500DE872804FFF75EFF00F094F8A2
:100690001748006840F47F001549086015A0FFF76F
:1006A000F1FD16A0FFF706FEFFF7C6FD1AA0FFF743
:1006B000E9FD1DA0FFF7FEFDFFF7BEFD23A0FFF73C
:1006C000E1FD26A0FFF7F6FDFFF7B6FD2CA0FFF732
:1006D000D9FD30A0FFF7EEFDFFF7AEFD06E03A20B2
:1006E000FFF7F3FD04462046FFF70AFEF7E7000098
:1006F00000C0092041540D0A000000000D0A5752A5
:100700004954494E4720434F4D4D414E44202241CC
:1007100054220D0A0000000041542B43574D4F4412
:10072000453D330D0A0000000D0A57524954494E09
:100730004720434F4D4D414E44202241542B4357B7
:100740004D4F44453D33220D0A00000041542B43D8
:1007500049504D55583D310D0A0000000D0A5752C1
:100760004954494E4720434F4D4D414E442022416C
:10077000542B4349504D55583D31220D0A0000007D
:1007800041542B4349505345525645523D312C3824
:10079000300D0A000D0A57524954494E4720434F25
:1007A0004D4D414E442041542B43495053455256E0
:1007B00045523D310D0A00002DE9F041FFF7C4FE1E
:1007C0002548006887084FF4E110B7FBF0F4224891
:1007D000006886084FF4E110B6FBF0F51F4800688A
:1007E00040F018001D49C439C1F8C40083201C49D9
:1007F00008731C4908731A490C70200A08711949BA
:100800000D70280A08711648007B20F080001449FA
:1008100008731448007B20F08000124908730720F9
:100820000F4908720F4908720F48006820F0F00065
:100830000D4908600846006840F05000086008460E
:10084000006920F00F0008610846006940F00A00C6
:100850000861BDE8F081000000000010C4C00F4036
:1008600000C000400000014000C002408C080000B1
:1008700000000010040000000801000090080000C3
:1008800004000010640200002401000000E1F505EE
:04000005000000CD2A
:00000001FF
