:100000000C942A000C9465000C9447000C94470053
:100010000C9447000C9447000C9447000C94470044
:100020000C9447000C9447000C9447000C94470034
:100030000C9447000C9447000C9447000C94470024
:100040000C9447000C9447000C9447000C94470014
:100050000C94470011241FBECFE5D8E0DEBFCDBF12
:1000600010E0A0E6B0E0E2E4F1E002C005900D92FD
:10007000A036B107D9F710E0A0E6B0E001C01D92AC
:10008000A036B107E1F70E9449000C949F000C9440
:10009000000012BA8FEF88BB82E085BF80E48BBF7F
:1000A0004FEF29E130E048BB80E197E2F901319759
:1000B000F1F70197D9F718BA80E197E2F901319782
:1000C000F1F70197D9F77894EECF1F920F920FB600
:1000D0000F9211242F933F934F935F938F939F938E
:1000E000EF93FF93F89481E088BB80E197E229E1E8
:1000F00030E0F9013197F1F70197D9F720E030E0CE
:1001000049E150E088B3880F88BB80E197E2FA01AB
:100110003197F1F70197D9F72F5F3F4F283031051D
:1001200089F77894FF91EF919F918F915F914F9113
:100130003F912F910F900FBE0F901F901895F8943C
:02014000FFCFEF
:00000001FF
