:100000000C942A000C9447000C9447000C94470071
:100010000C9447000C9447000C9447000C94470044
:100020000C9447000C9447000C9447000C94470034
:100030000C9447000C9447000C9447000C94470024
:100040000C9447000C9447000C9447000C94470014
:100050000C94470011241FBECFE5D8E0DEBFCDBF12
:1000600010E0A0E6B0E0ECEBF0E002C005900D92ED
:10007000A036B107D9F710E0A0E6B0E001C01D92AC
:10008000A036B107E1F70E9449000C945C000C9483
:1000900000008FEF81BB8CE085BD14BC8FEF82BB6D
:1000A00008B606FEFDCF12BA08B606FEFDCFF7CFA2
:0C00B00008B606FEFDCF0895F894FFCFBF
:00000001FF
