:100000000C9446000C9465000C9465000C946500FB
:100010000C9465000C9465000C9465000C946500CC
:100020000C9465000C9465000C9465000C946500BC
:100030000C9465000C9465000C9465000C946500AC
:100040000C9465000C9465000C9465000C9465009C
:100050000C9465000C9465000C9465000C9465008C
:100060000C9465000C9465000C9465000C9465007C
:100070000C9465000C9465000C9465000C9465006C
:100080000C9465000C9465000C94650011241FBE4F
:10009000CFEFD0E1DEBFCDBF11E0A0E0B1E0E6E2FE
:1000A000F4E000E00BBF02C007900D92AE32B10742
:1000B000D9F711E0AEE2B1E001C01D92AE32B10756
:1000C000E1F70E9467000C9411020C940000BF92AB
:1000D000CF92DF92EF92FF920F931F938FEF87BB28
:1000E00081BB14BA88E382BB82E088BB88E893E1D5
:1000F00029E130E0F9013197F1F70197D9F718BA02
:1001000081E082BB82E088BB88E893E129E130E0AE
:10011000F9013197F1F70197D9F718BA80E882BB56
:1001200082E088BB88E893E129E130E0F90131976A
:10013000F1F70197D9F718BA86E082BB82E088BB55
:1001400088E893E129E130E0F9013197F1F701976F
:10015000D9F718BA8EE082BB82E088BB88E893E1C9
:1001600029E130E0F9013197F1F70197D9F718BA91
:10017000BB24BA9449E150E013E061E072E030E85A
:10018000F32E2AEAE22E95E5D92E80EFC82E0FE055
:10019000989932C0B2BA88E893E1FA013197F1F741
:1001A0000197D9F712BA88E893E1FA013197F1F78C
:1001B0000197D9F7A0E0B1E00BC082BB18BB88E87B
:1001C00093E1FA013197F1F70197D9F768BB1196DE
:1001D0008C91882391F780E197E2FA013197F1F74A
:1001E0000197D9F762BB78BB88E893E1FA013197B0
:1001F000F1F70197D9F7E1C0999932C0C2BA88E8FE
:1002000093E1FA013197F1F70197D9F702BB88E83A
:1002100093E1FA013197F1F70197D9F7A9E0B1E03D
:100220000BC082BB18BB88E893E1FA013197F1F764
:100230000197D9F768BB11968C91882391F780E1DB
:1002400097E2FA013197F1F70197D9F762BB78BBD2
:1002500088E893E1FA013197F1F70197D9F7ADC03A
:100260009A9932C0E2BA88E893E1FA013197F1F73E
:100270000197D9F7D2BA88E893E1FA013197F1F7FB
:100280000197D9F7AEE0B1E00BC082BB18BB88E89C
:1002900093E1FA013197F1F70197D9F768BB11960D
:1002A0008C91882391F780E197E2FA013197F1F779
:1002B0000197D9F762BB78BB88E893E1FA013197DF
:1002C000F1F70197D9F779C09B993BC062BB88E8E9
:1002D00093E1FA013197F1F70197D9F720E030E087
:1002E00082B3880F82BB88E893E1FA013197F1F776
:1002F0000197D9F72F5F3F4F2830310589F7A8E1E3
:10030000B1E00BC082BB18BB88E893E1FA013197DA
:10031000F1F70197D9F768BB11968C91882391F773
:1003200080E197E2FA013197F1F70197D9F762BBC3
:1003300078BB88E893E1FA013197F1F70197D9F793
:100340003CC09C9925CFF2BA88E893E1FA01319735
:10035000F1F70197D9F720E030E085B3869582BBAD
:1003600088E893E1FA013197F1F70197D9F72F5F08
:100370003F4F2830310589F7A3E2B1E00BC082BBC3
:1003800018BB88E893E1FA013197F1F70197D9F7A3
:1003900068BB11968C91882391F780E197E2FA016E
:1003A0003197F1F70197D9F762BB78BB88E893E101
:1003B000FA013197F1F70197D9F718BAE9CE82BB64
:1003C00082E088BB88E893E129E130E0F9013197C8
:1003D000F1F70197D9F718BA089582BB83E088BB7B
:1003E00088E893E129E130E0F9013197F1F70197CD
:1003F000D9F781E088BB0895DC0153E029E130E0C2
:1004000041E00BC082BB58BB88E893E1F90131970A
:10041000F1F70197D9F748BB11968C91882391F792
:060420000895F894FFCFDF
:10042600424C494E4B494E47003462793400414CA8
:100436005445524E41544500555020544F20444F88
:0E044600574E00444F574E20544F2055500043
:00000001FF
